:040000031000F6C52E
:020000040001F9
:10F0000000000120C5F60100EDF60100EFF6010059
:10F0100001F7010003F7010005F7010000000000FF
:10F0200000000000000000000000000007F70100E1
:10F0300009F70100000000000BF701000DF70100C7
:10F040000FF701000FF701000FF701000FF70100A4
:10F050000FF701000FF701000FF701000FF7010094
:10F060000FF701000FF701000FF701000FF7010084
:10F070000FF701000FF701000FF701000FF7010074
:10F080000FF701000FF701000FF701000FF7010064
:10F090000FF701000FF701000FF701000FF7010054
:10F0A0000FF701000FF701000FF701000FF7010044
:10F0B0000FF701000FF70100000000000000000042
:10F0C0000FF701000FF701000FF701000FF7010024
:10F0D0000FF701000FF701000FF70100000000001B
:10F0E0000000000000000000000000000000000020
:10F0F0000000000000000000000000000000000010
:10F1000000000000000000000000000000000000FF
:10F1100000000000000000000000000000000000EF
:10F400000348044B834202D0034B03B118477047B3
:10F4100094210020942100200000000005480649A6
:10F42000091A891001EBD171491002D0034B03B1C5
:10F43000184770479421002094210020000000000C
:10F4400010B5064C237843B9FFF7DAFF044B13B12C
:10F450000448AFF300800123237010BD94210020E5
:10F4600000000000E8FE010008B5054B1BB105498E
:10F470000548AFF30080BDE80840FFF7CFBF00BFED
:10F480000000000098210020E8FE0100154B002B31
:10F4900008BF134B9D46A3F5803A00218B460F46CB
:10F4A0001348144A121A00F063F80F4B002B00D0D7
:10F4B00098470E4B002B00D09847002000210400F5
:10F4C0000D000D48002802D00C48AFF3008000F07A
:10F4D0002BF82000290000F08FF800F011F800BF91
:10F4E00000000800000001200000000000000000F3
:10F4F00094210020B4210020000000000000000042
:10F5000008B5074B044613B10021AFF30080054B4B
:10F510001868836A03B19847204600F031F800BFAD
:10F5200000000000E4FA010070B50D4D0D4C641BA5
:10F53000A4100026A64209D10B4D0C4C00F0C6FACF
:10F54000641BA4100026A64205D170BD55F8043BEB
:10F5500098470136EEE755F8043B98470136F2E745
:10F560008C2100208C2100208C2100209021002063
:10F5700002440346934200D1704703F8011BF9E7A8
:10F58000FEE700BF81B110B4084C014410F8013B04
:10F5900083EA1263884254F8233083EA0222F5D1C9
:10F5A00010465DF8044B704710467047E8FA0100BA
:10F5B0000F4A022310B40146C2F80435D2F80034D1
:10F5C000002BFBD001230A4CC2F81435D4F80034C8
:10F5D000002BFBD00023064AC4F80435D2F80034CF
:10F5E000002BFBD003485DF8044B00F0A9B800BF26
:10F5F00000E001401410001038B54FF4F830FFF768
:10F60000D7FF1E481E4C41682060043910304FF06F
:10F61000FF32FFF7B7FF2368DB68834201D030BFBA
:10F62000FDE74FF4E025284605F5805500F070F819
:10F63000B5F5002FF7D123685A685AB100255A1939
:10F6400018681169284400F07BF823685A6804356B
:10F65000AA42F4D80B4800F05BF823681868FFF75B
:10F66000A7FFBFF34F8F0849084BCA6802F4E06256
:10F670001343CB60BFF34F8F00BFFDE700100200C4
:10F68000B02100200000020000ED00E00400FA05B7
:10F69000D0E9002388B0D0E9026500920193D0E957
:10F6A0000623046941690296039504940591069224
:10F6B0000793009B019B029B039B049B059B069B5E
:10F6C000079BFEE70649074A074B9B1A03DD043BED
:10F6D000C858D050FBDC00F05DF8FFF7D7FE000003
:10F6E000F8FE01002821002094210020FEE71EF0F2
:10F6F000040F0CBFEFF30880EFF30980FFF7C8BFDA
:10F70000FEE7FEE7FEE7FEE7FEE7FEE7FEE7FEE7D1
:10F710000A4A0223C2F80435BFF36F8FBFF34F8F3D
:10F72000C2F80805D2F80034002BFBD00023C2F841
:10F730000435BFF36F8FBFF34F8F704700E0014078
:10F740000A4A0123C2F80435BFF36F8FBFF34F8F0E
:10F750000160D2F80034002BFBD00023C2F804353E
:10F76000BFF36F8FBFF34F8F704700BF00E00140C2
:10F77000BFF34F8F0549064BCA6802F4E06213439A
:10F78000CB60BFF34F8F00BFFDE700BF00ED00E08F
:10F790000400FA0538B5B94B1B78062B32D0B84AAD
:10F7A000D2F8883043F47003C2F88830BFF34F8F2B
:10F7B000BFF36F8F4FF01023D3F80C22D20700F164
:10F7C0003F81D3F80022002AC0F21481D3F804321A
:10F7D000002BC0F20F81AB49AB48CB68AB4C43F078
:10F7E00080734FF08042CB60D2F85C354FF0A0417F
:10F7F00043F4803340F20135C2F85C35C1F8485714
:10F80000046038BDA24B1B681907C8D1A14B1B6807
:10F8100003F0F003302B02D19F4BA04A1A609D4B9E
:10F820001B6803F0F002302A4DD003F0E003402BB8
:10F8300049D0984B1B6803F0F003302B00F0CB80CD
:10F84000944B1B6803F0F002302A28D003F0E00349
:10F85000402B24D08F4B1B6803F0F003302B00F0BB
:10F86000AC808C4B1B6803F0F003302B00F08E80D3
:10F87000884B1B6803F0F003502B35D0854B1B6879
:10F8800003F0F002302A03D003F0E003402B86D1CE
:10F89000834B844A1B6803F04F0313607FE7774B69
:10F8A0001B784FF080420021062BC2F80C11C2F8E1
:10F8B0001011C2F838157FF472AF754B1B681D0725
:10F8C0007FF46DAFC6E7784B6C4A1B6812787749B6
:10F8D000C3F34233062A0B607FF461AF6C4B1B68A5
:10F8E0001A077FF45CAFA4E74FF08052704BD2F858
:10F8F0000414C3F82015D2F80814C3F82415D2F85C
:10F900000C14C3F82815D2F81014C3F82C15D2F82B
:10F910001414C3F83015D2F81814C3F83415D2F8FB
:10F920001C14C3F84015D2F82014C3F84415D2F8BB
:10F930002414C3F84815D2F82814C3F84C15D2F88B
:10F940002C14C3F85015D2F83014C3F85415D2F85B
:10F950003414C3F86015D2F83814C3F86415D2F81B
:10F960003C14C3F86815D2F84014C3F86C15D2F8EB
:10F970004424C3F87025414B1B78062B7FF40FAF4E
:10F98000434B1B6819077FF40AAF77E73B4B494CA1
:10F990001A78494949484A4B0525256001250D60DB
:10F9A00000243F21062A046019607FF4F8AE384B2A
:10F9B0001B6818077FF4F3AE5AE7304B414A1B78B7
:10F9C0000321062B11607FF4EAAE314B1B681C0744
:10F9D0007FF4E5AE45E72B4A2849D368097823F040
:10F9E00080730629D360C6D1294B1B681B077FF49F
:10F9F000D6AE25E7344A0123C2F80435D2F80034E4
:10FA0000002BFBD04FF0102315212F4AC3F8001212
:10FA1000D2F80034002BFBD04FF0102315212A4AD6
:10FA2000C3F80412D2F80034002BFBD0002326497F
:10FA3000C2F80435D1F80034002BFBD0FFF798FE54
:10FA4000214B0122C3F80425D3F80024002AFBD05F
:10FA50004FF010211C4BD1F80C2222F00102C1F80A
:10FA60000C22D3F80024002AFBD00021164AC3F848
:10FA70000415D2F80034002BFBD0DFE7E00F00F0D4
:10FA800000ED00E0F0ED00E0882100200090D003C0
:10FA9000E40F00F0E80F00F074C007400DF0ADBABD
:10FAA00058020010E40E0040440200103C050040E3
:10FAB00000C00040105600408856004018560040D4
:10FAC00014560040A005004000E00140F8B500BF1A
:10FAD000F8BC08BC9E467047F8B500BFF8BC08BC2F
:10FAE0009E4670472821002000000000B71DC10479
:10FAF0006E3B8209D926430DDC7604136B6BC51768
:10FB0000B24D861A0550471EB8ED08260FF0C922DF
:10FB1000D6D68A2F61CB4B2B649B0C35D386CD3147
:10FB20000AA08E3CBDBD4F3870DB114CC7C6D04813
:10FB30001EE09345A9FD5241ACAD155F1BB0D45BEF
:10FB4000C2969756758B5652C836196A7F2BD86E57
:10FB5000A60D9B6311105A6714401D79A35DDC7DCF
:10FB60007A7B9F70CD665E74E0B6239857ABE29CBB
:10FB70008E8DA191399060953CC0278B8BDDE68FEF
:10FB800052FBA582E5E66486585B2BBEEF46EABAD7
:10FB90003660A9B7817D68B3842D2FAD3330EEA9CF
:10FBA000EA16ADA45D0B6CA0906D32D42770F3D033
:10FBB000FE56B0DD494B71D94C1B36C7FB06F7C367
:10FBC0002220B4CE953D75CA28803AF29F9DFBF65F
:10FBD00046BBB8FBF1A679FFF4F63EE143EBFFE547
:10FBE0009ACDBCE82DD07DEC77708634C06D47305F
:10FBF000194B043DAE56C539AB0682271C1B432367
:10FC0000C53D002E7220C12ACF9D8E1278804F16DE
:10FC1000A1A60C1B16BBCD1F13EB8A01A4F64B0546
:10FC20007DD00808CACDC90C07AB9778B0B6567C12
:10FC300069901571DE8DD475DBDD936B6CC0526FEE
:10FC4000B5E6116202FBD066BF469F5E085B5E5A56
:10FC5000D17D1D576660DC5363309B4DD42D5A49CE
:10FC60000D0B1944BA16D84097C6A5AC20DB64A882
:10FC7000F9FD27A54EE0E6A14BB0A1BFFCAD60BBEE
:10FC8000258B23B69296E2B22F2BAD8A98366C8ED6
:10FC900041102F83F60DEE87F35DA9994440689DCE
:10FCA0009D662B902A7BEA94E71DB4E0500075E432
:10FCB000892636E93E3BF7ED3B6BB0F38C7671F766
:10FCC000555032FAE24DF3FE5FF0BCC6E8ED7DC25E
:10FCD00031CB3ECF86D6FFCB8386B8D5349B79D146
:10FCE000EDBD3ADC5AA0FBD8EEE00C6959FDCD6DB4
:10FCF00080DB8E6037C64F643296087A858BC97E6A
:10FD00005CAD8A73EBB04B77560D044FE110C54BD9
:10FD1000383686468F2B47428A7B005C3D66C15849
:10FD2000E4408255535D43519E3B1D252926DC212D
:10FD3000F0009F2C471D5E28424D1936F550D832F1
:10FD40002C769B3F9B6B5A3B26D6150391CBD40751
:10FD500048ED970AFFF0560EFAA011104DBDD014D1
:10FD6000949B93192386521D0E562FF1B94BEEF535
:10FD7000606DADF8D7706CFCD2202BE2653DEAE6F1
:10FD8000BC1BA9EB0B0668EFB6BB27D701A6E6D3D1
:10FD9000D880A5DE6F9D64DA6ACD23C4DDD0E2C0D1
:10FDA00004F6A1CDB3EB60C97E8D3EBDC990FFB90D
:10FDB00010B6BCB4A7AB7DB0A2FB3AAE15E6FBAA69
:10FDC000CCC0B8A77BDD79A3C660369B717DF79F59
:10FDD000A85BB4921F4675961A163288AD0BF38C49
:10FDE000742DB081C330718599908A5D2E8D4B59E9
:10FDF000F7AB085440B6C95045E68E4EF2FB4F4A69
:10FE00002BDD0C479CC0CD43217D827B9660437FD8
:10FE10004F460072F85BC176FD0B86684A16476C48
:10FE200093300461242DC565E94B9B115E565A152C
:10FE300087701918306DD81C353D9F0282205E06F0
:10FE40005B061D0BEC1BDC0F51A69337E6BB523350
:10FE50003F9D113E8880D03A8DD097243ACD5620D0
:10FE6000E3EB152D54F6D4297926A9C5CE3B68C1FC
:10FE7000171D2BCCA000EAC8A550ADD6124D6CD2F0
:10FE8000CB6B2FDF7C76EEDBC1CBA1E376D660E7D0
:10FE9000AFF023EA18EDE2EE1DBDA5F0AAA064F4D0
:10FEA000738627F9C49BE6FD09FDB889BEE0798D0C
:10FEB00067C63A80D0DBFB84D58BBC9A62967D9E68
:10FEC000BBB03E930CADFF97B110B0AF060D71AB58
:10FED000DF2B32A66836F3A26D66B4BCDA7B75B848
:10FEE000035D36B5B440F7B100000000000000002B
:10FEF0009CF5FF7F010000000000000000000000F2
:10FF000000000000000000000000000000000000F1
:10FF100000000000000000000000000000000000E1
:10FF200000000000000000000000000000000000D1
:10FF300000000000000000000000000000000000C1
:10FF400000000000000000000000000000000000B1
:10FF500000000000000000000090D00369F40100E0
:04FF600041F4010067
:020000040002F8
:1000000000EFCDABFFFFFFFFFFFFFFFFFFFFFFFF95
:10001000FFFFFFFFFFFFFFFFFFFFFFFFFFFFFFFFF0
:10002000FFFFFFFFFFFFFFFFFFFFFFFFFFFFFFFFE0
:10003000FFFFFFFFFFFFFFFFFFFFFFFFFFFFFFFFD0
:10004000FFFFFFFFFFFFFFFFFFFFFFFFFFFFFFFFC0
:101000000000070040220000ADDAADBA803C557107
:10101000000001202D12070055120700571207008B
:10102000691207006B1207006D1207000000000034
:101030000000000000000000000000006F12070028
:1010400071120700000000007312070075120700FC
:1010500077120700771207006D1A0700CD190700F5
:10106000F5190700771207007712070077120700BB
:101070007712070077120700771207007712070030
:101080007712070077120700771207007712070020
:10109000771207007712070077120700451A07003A
:1010A0007712070077120700771207007712070000
:1010B00077120700771207007712070077120700F0
:1010C0007712070077120700000000000000000000
:1010D0007712070077120700771207001D1A070022
:1010E0007712070077120700771207000000000050
:1010F00000000000000000000000000000000000F0
:1011000000000000000000000000000000000000DF
:1011100000000000000000000000000000000000CF
:1011200000000000000000000000000000000000BF
:10141000402200000348044B834202D0034B03B137
:1014200018477047942100209421002000000000FC
:1014300005480649091A891001EBD171491002D0FB
:10144000034B03B1184770479421002094210020DA
:101450000000000010B5064C237843B9FFF7DAFF0F
:10146000044B13B10448AFF300800123237010BD77
:101470009421002000000000A821070008B5054BBA
:101480001BB105490548AFF30080BDE80840FFF7F0
:10149000CFBF00BF0000000098210020A821070056
:1014A000154B002B08BF134B9D46A3F5803A002136
:1014B0008B460F461348144A121A00F063F80F4B7C
:1014C000002B00D098470E4B002B00D098470020EF
:1014D000002104000D000D48002802D00C48AFF395
:1014E000008000F02BF82000290000F06DFA00F0D9
:1014F00011F800BF000008000000012000000000FB
:101500000000000094210020642200200000000060
:101510000000000008B5074B044613B10021AFF3EB
:101520000080054B1868836A03B19847204600F095
:1015300031F800BF00000000241C070070B50D4DFD
:101540000D4C641BA4100026A64209D10B4D0C4C77
:1015500001F064FB641BA4100026A64205D170BDF7
:1015600055F8043B98470136EEE755F8043B984799
:101570000136F2E78C2100208C2100208C210020F4
:101580009021002002440346934200D1704703F8A3
:10159000011BF9E7FEE700BF30BFFDE708B500F02B
:1015A0002FFB00F0A5F9BDE8084000F081BB00BFAB
:1015B00030B589B003AA02A9052000F0D3FD174C6D
:1015C00005AA04A9042000F0CDFD00250094012304
:1015D00010220299124825602573C4E9015500F0D4
:1015E00013F9B8B9237B052B01D009B030BD049A9B
:1015F00060680123104406A9082200F06BFC9DF8E6
:101600001C0000F0FB00A0F10200B0FA80F04009DD
:1016100009B030BD284609B030BD00BF48220020C7
:10162000302200202DE9F047344E9EB002AA01A9D5
:10163000042000F097FD019A70680123104404A96A
:10164000082200F047FC9DF814307468062B019BBB
:101650001C4404F108004FF0010341D0082206A900
:1016600000F038FCDDE9067810344FF0000AB7F5D9
:10167000E02F07EB080902D2B9F5E02F2DD84F452E
:1016800038BF3D4606D2284605F5805500F0FCFDE2
:10169000A945F8D8B8F1000F0DD00025281901236D
:1016A000042203A900F016FC78190399043500F010
:1016B00003FEA845F2D87368049A104910481344F1
:1016C000736000F05FF8BAF1000F03D09DF8253089
:1016D000012B10D01EB0BDE8F08730BF30BFFCE753
:1016E000602206A900F0F6FB6834069FDDF8208032
:1016F0004FF0010ABBE7FFF795FFEBE74822002018
:10170000302200202DE9F0418046006882B001239C
:101710000D46803001A9042200F0DCFB019B01335F
:1017200029D01F27002603E01BBB661CB74212D33B
:10173000D8F80000F41904228030640801230DEB6E
:10174000020100EB840000F0C5FB019B5A1CEBD1A9
:10175000671EB742ECD2640193B100215A1E1340B8
:1017600001F10101FAD12034641A2C6002B0BDE805
:10177000F0816401F1E700232B6002B0BDE8F08145
:101780001946F0E730B5D0E90432802A83B0044628
:101790000D4602FA03F327D0C26803F58073C2F541
:1017A0008051994220D9606829461844012300F0ED
:1017B0004DFC63696268013303F007054FF0FF31A8
:1017C00002EBD302A9406361019102F1800025B9C7
:1017D000072B84BF02F17F00019501231A4601A95E
:1017E00000F034FC03B030BD002363610121606868
:1017F00000F064FC012318222146606800F026FCFA
:10180000E2684FF48073CEE7F8B504460E461546FD
:10181000014618221F463046012300F05BFB226878
:10182000254B9A423ED0244B6660C4E90275236082
:10183000C5B9012501213046256100F03FFC304645
:1018400001231822214600F001FC04F11401201D9F
:10185000FFF758FF6369BBB920460699FFF792FF6F
:101860000020F8BD013D0F2D94BF0022042225FA6F
:1018700002F58CBF06230223032D94BF42EA5505CF
:1018800043EAD5050135D5E721696068E268013B87
:101890008B4000F5807018440699012300F01AFB74
:1018A0000020F8BD6368B342BDD1E368AB42BAD152
:1018B000A368BB42B7D1C8E70056341281B110B457
:1018C000084C014410F8013B83EA1263884254F843
:1018D000233083EA0222F5D110465DF8044B7047AD
:1018E00010467047281C070000487047B0210020B0
:1018F00008B500F08BFA064B064A98420CBF4FF42D
:1019000000734FF44073C2E90303002008BD00BF19
:1019100010152020B021002018DF704711DF70471C
:1019200013DF70472DE9F04184B00223684600932D
:10193000FFF7F2FF002835D1204C214BA2699A42D3
:1019400033D1204B1968B1F5E02F31D8C1F5E0282B
:10195000404604394FF0FF32FFF7B0FFE369984289
:1019600026D1FFF7DBFF4046FFF7DAFFD8F800008B
:1019700080F30888D8F80400FF2464B2EFF30585EB
:10198000002D01D1A64600472546064621273FBA2D
:10199000F0B40024002500260027F0B4F92040B25E
:1019A000004700BF04B0BDE8F0814FF4F838D8E735
:1019B000FFF7F2FD04B0BDE8F08100BFE0FF0600D4
:1019C000ADDAADBADCFF060008B5FFF7E7FDFFF7BB
:1019D000EFFD28B9FFF7A6FFFFF7DEFD002008BDE9
:1019E000FFF720FEF6E700BFFFF7D6BD70B4D0E9E1
:1019F000002389B0D0E9026500920193D0E9062363
:101A0000046941690296039504940591069207932F
:101A1000009B019B029B039B049B059B069B079BD2
:101A200009B070BCFFF7B8BD2DE9F04FDFF8A4C0D6
:101A3000244C254F254E264DDFF89C90DFF89C80E6
:101A40004FF0010E85B0F3460023FF290A4628BF58
:101A5000FF22C4F84405C4F84825C4F83435C4F856
:101A60003835CCF80030DCF800A0CDF800A0DDF867
:101A700000A03B60D7F800A0CDF804A0DDF804A0DA
:101A80003360D6F800A0CDF808A0DDF808A02B60E0
:101A9000D5F800A0CDF80CA0DDF80CA0C9F800B076
:101AA000D6F800A0BAF1000FFAD0C8F800E0D5F8D7
:101AB00000A0BAF1000FFAD0891A1044C5D105B0C0
:101AC000BDE8F08F00300240103102401831024072
:101AD00004310240203102401030024014300240F4
:101AE00070B5104C82B02378B9228DF804200BB168
:101AF00002B070BD4FF0A0454FF4003601A8C5F804
:101B00000C650121FFF790FF074BC5F80865D888E1
:101B100020B1064B800143F0010398470123237055
:101B200002B070BDD8210020C8210020302007005D
:101B300030B488B04FF0A042AB2501951E491F4C30
:101B40001F48204B4FF40035C2F80C5501AAC1F8CC
:101B50004425042506AAC1F84855C1F834250525B1
:101B60000022C1F838552260216802910299026072
:101B70000168039103991A60186813490490049846
:101B80000A600968114A05910121059811601A68D7
:101B9000002AFCD00E4B0C4901221A600B68002B66
:101BA000FCD04FF0A0434FF40032C3F808259DF855
:101BB0001C0008B030BC70470030024020310240A9
:101BC000103102401831024004310240103002400E
:101BD0001430024008B5FFF7ABFF064B188920B15F
:101BE000054B800143F001039847044B00221A8003
:101BF00008BD00BFC821002030200700D8210020E8
:101C0000F0B585B0214B2248009300214FF0A0454C
:101C10000223204C019103228DF805304FF000463D
:101C20004FF400430391018002968DF80C20C5F813
:101C30000835C5F83C27C0E901111748A1730B46C8
:101C40000A462027154EC4F8060069461448277135
:101C5000C4F80A6000F096FBA8B960890C23C5F8A7
:101C6000403720B10F4B800143F001039847FFF745
:101C70005FFF142802D00C4805B0F0BDFFF730FF1D
:101C8000002005B0F0BD094805B0F0BD0E0D1011E3
:101C9000D8210020C821002004001F001F000B00D5
:101CA000D8200700302007000E0001800D000180C1
:101CB00010B5FFF719FE0369094CB3F5007F0CBF9F
:101CC0004FF480334FF480532360FFF70DFE036918
:101CD000B3F5007F0CBFD8232023237110BD00BFB4
:101CE000C821002030B4244B86B01B7805228DF823
:101CF00000201BB1002006B030BC70474FF0A0415F
:101D00001E4A1F4C1F484FF40035C1F80C550121E5
:101D100001ADC2F844D5C2F84815C2F834550225C1
:101D2000C2F83855236022680292029A0360006864
:101D3000154A039003981360146814480494049C93
:101D400003600068124B0590059819601368002B1A
:101D5000FCD0104B0D4A012119601368002BFCD0F8
:101D60004FF0A0434FF40032C3F808259DF805005A
:101D700006B030BC704700BFD821002000300240C0
:101D8000203102401031024018310240043102403B
:101D90001030024014300240F0B583B04FF0A04440
:101DA000050C8DF8055006234FF4003540BA022784
:101DB000ADF806008DF804708DF800300E46C4F8BA
:101DC0000C55012168461746FFF72EFEC4F808554A
:101DD00000BF00BF00BF00BF00BF04210DEB01002A
:101DE000C4F80C55FFF720FE39463046FFF71CFEBD
:101DF000C4F8085500BF00BF00BF00BF00BFFFF719
:101E000071FFC307FBD403B0F0BD00BF30B5274C52
:101E100089B09F230193FFF7DDFE637833B9244B2C
:101E2000244843F001039847012363704FF0A04218
:101E30002149224C2248234B4FF40035C2F80C555F
:101E400001AAC1F84425042506AAC1F84855C1F8DD
:101E5000342505250022C1F83855226021680291F9
:101E6000029902600168039103991A601868164983
:101E7000049004980A600968144A059101210598A4
:101E800011601A68002AFCD0114B0F4901221A6018
:101E90000B68002BFCD04FF0A0434FF40032C3F886
:101EA0000825DDF8190000BA09B030BDD82100209E
:101EB0003020070000BE0A000030024020310240FE
:101EC000103102401831024004310240103002400B
:101ED000143002402DE9F04F534C8BB026784FEA76
:101EE000104C1F4640BA03230D4614468DF805C01A
:101EF000ADF806008DF80430002E40F091804FF0D0
:101F0000A0434FF400320421C3F80C250DEB01006F
:101F1000FFF78AFD012C49D9444ADFF81CE1DFF8BC
:101F200028C1434E4348DFF818B1DFF818A14FF03D
:101F300001080023C2F84435C2F84835C2F83455C8
:101F4000C2F83845CEF80030DEF800100291029950
:101F5000CCF80030DCF8001003910399336031684D
:101F6000049104990360016805910599FF2C4FF0D5
:101F70000101CBF80010214628BFFF2189463168B6
:101F80000029FCD0CAF8008001680029FCD0B4EB1D
:101F900009044D44CED14FF0A0434FF40032C3F8B2
:101FA0000825FB0737D50BB0BDE8F08F1F4A224943
:101FB00022480023C2F84435C2F84835C2F8340537
:101FC0000220C2F838050B60096806910699C2F82C
:101FD0001031D2F81011079102F58C720799136035
:101FE00010681449089008980B600968144B09910F
:101FF0000121099819601368002BFCD0114B0D4981
:1020000001221A600B68002BFCD0224628460B499F
:1020100000F0F6FDBFE7FFF763FD0BB0BDE8F08F02
:10202000FFF7D8FD6BE700BFD82100200030024049
:10203000183102400431024020310240C421002006
:102040001030024014300240103102402DE9F041BE
:10205000174C94F800C006460F4615469846BCF14A
:10206000000F1ED16378A3B175B1F4B2C4F58074CA
:10207000AC4228BF2C46394630462246FFF78CFE3C
:102080002D1B27442644F0D118F0010F0CD0BDE8D9
:10209000F081084B084843F001039847012363701F
:1020A000E2E7FFF797FDDDE7BDE8F041FFF718BD78
:1020B000D82100203020070000BE0A0070B5254B53
:1020C000254C1A79002362F30703020C62F30F23F5
:1020D000020A82B062F3174360F31F6301930E4656
:1020E000FFF778FD637833B91C4B1D4843F00103BB
:1020F0009847012363704FF0A04406234FF4003546
:102100008DF800300121C4F80C556846FFF78CFCAF
:10211000C4F8085500BF00BF00BF00BF00BF0421C6
:10212000C4F80C550DEB0100FFF77EFCC4F8085510
:1021300000BF00BF00BF00BF00BFFFF7D3FDC20755
:10214000FBD4F30701D502B070BDFFF7C9FC02B0A4
:1021500070BD00BFC8210020D8210020302007001A
:1021600000BE0A002DE9F041304C314B2568314C5E
:10217000B5F5803F15BF23464FF470244FF4A044BB
:102180004FF4A02515BF4FF480454FF480264FF43F
:1021900040564FF4C02715BF4FF480274FF4403C02
:1021A0004FF4005C4FF4003E18BF4FF4805E0828E7
:1021B0003AD8DFE800F00B11181F24292F3405004E
:1021C0000C60DB6A13600020BDE8F081C1F800E01C
:1021D000DB6813600020F7E74FF4801008605B6C49
:1021E00013600020F0E74FF4A0100860DB6C136070
:1021F0000020E9E7002008605B681360E4E70F60F7
:10220000DB6B13600020DFE7C1F800C05B6913607F
:102210000020D9E70E60DB6913600020D4E70D6071
:102220005B6A13600020CFE70348CDE7C821002098
:102230008820070038200700060001800649074A69
:10224000074B9B1A03DD043BC858D050FBDC00F061
:1022500029FAFFF725F90000B42107002821002002
:1022600094210020FEE71EF0040F0CBFEFF308805E
:10227000EFF30980FFF7BABBFEE7FEE7FEE7FEE7F4
:10228000FEE7FEE7FEE7FEE70A4A0223C2F804354E
:10229000BFF36F8FBFF34F8FC2F80805D2F8003439
:1022A000002BFBD00023C2F80435BFF36F8FBFF3C0
:1022B0004F8F704700E001400A4A0123C2F80435FD
:1022C000BFF36F8FBFF34F8F0160D2F80034002B44
:1022D000FBD00023C2F80435BFF36F8FBFF34F8FDD
:1022E000704700BF00E00140214BD3F8182142B3F2
:1022F00030B500221F4CC3F8182183B0D3F8182141
:1023000023680192019A3BB3E57FFF2D0FD0A37F95
:10231000C3B11F2D04D918494FF4F370FFF764FBC4
:1023200001234FF0A04203FA05F5C2F80C55002333
:1023300063772372D4E90031104803B0BDE8304020
:10234000184770471F2D0DD801234FF0A04203FA04
:1023500005F5C2F80855EAE709494FF42770FFF779
:1023600043FBD1E704494FF4F370FFF73DFBEBE784
:1023700000300240E42100200C210700EC21002065
:10238000E02007002DE9F04F814685B00E4639B3B5
:1023900099F80440B04F4FEAC40A0AEB0405AD00B7
:1023A00007EB050B9BF81C1029B1DFF8CC824046E7
:1023B00005B0BDE8F08FCDE90123D9F80030A74979
:1023C0000393184600F06EFBA54988428046DDE97C
:1023D00001230ED0DFF8A482404605B0BDE8F08F9F
:1023E000A049AD20CDE90123FFF7FEFADDE9012385
:1023F000CEE77A51CBF80430337B3578012B40F2AD
:10240000CE801F2D00F20B8101234FF0A042AB4084
:10241000C2F8083535781F2D00F2D08005F5E0753B
:102420004FF0A043012243F825207578FF2D00F0DE
:10243000BF801F2D02FA05FB2A4600F2DF80C3F899
:102440000CB505F5E0754FF0A043032143F82510C6
:10245000B578FF2D00F0AF801F2DAB4600F2BE8097
:1024600005F5E0754FF0A043042143F82510B57839
:102470000AEB040307EB830383F82050F178D97744
:10248000F578FF2D1DD03379002B70D11F2D00F270
:10249000DA8001234FF0A04103FA05F5C1F8085591
:1024A000F5781F2D00F2A2804FF0A04305F5E075EE
:1024B000032143F825100AEB040307EB830331796A
:1024C000997703993378C1F80835C1F80C25C1F81C
:1024D00010B5B368C1F82435737B327B003318BF65
:1024E0000123022A77D0032A72D0012A4FD00AEBA7
:1024F0000402C1F8543557F82230B279C1F8C0252A
:10250000002B61D007234022C1F80423C1F8003515
:102510007579D9F80060AB1E360B012B4FFA86FB9C
:1025200002D96B1F022B35D86D01BBF1000FEDB244
:1025300027DB0BF1604B0BF5614B8BF80053D9F89F
:10254000003049481B0B5AB2520903F01F03012106
:1025500001FA03F340F82230544407EB84070022C9
:10256000012340467A773B7705B0BDE8F08F1F2DF9
:1025700061D801234FF0A04103FA05F5C1F80C55CD
:102580008EE73A4B06F00F0633441D76D7E743F04B
:102590000203ACE736497420FFF726FAC4E71F2D83
:1025A00043D801234FF0A042AB40C2F80C3531E7CD
:1025B0004FF0FF324CE74FF0FF3B59E72D494FF406
:1025C000F370FFF711FA29E70723C1F80035C3E7D5
:1025D00043F006038BE743F0040388E725490192A3
:1025E0004FF4F370FFF700FA019A39E7214901929D
:1025F0004FF4F370FFF7F8F9019A55E71D494FF4CE
:10260000F370CDE90153FFF7EFF9029B1949C3F8C5
:102610000CB54FF4F370FFF7E7F9019A11E715498C
:102620004FF4F370FFF7E0F9EEE612494FF4F37060
:10263000FFF7DAF9B5E70F4901924FF4F370FFF7AE
:10264000D3F9019A95E70B4901924FF4F370FFF724
:10265000CBF9019A1DE700BFE4210020D912070041
:102660000000AD0BE020070000E100E0FCEC00E022
:10267000302107000C2107000500AD0B0B00AD0B4E
:10268000BFF34F8F0549064BCA6802F4E06213435B
:10269000CB60BFF34F8F00BFFDE700BF00ED00E050
:1026A0000400FA0538B5B94B1B78062B32D0B84A6E
:1026B000D2F8883043F47003C2F88830BFF34F8FEC
:1026C000BFF36F8F4FF01023D3F80C22D20700F125
:1026D0003F81D3F80022002AC0F21481D3F80432DB
:1026E000002BC0F20F81AB49AB48CB68AB4C43F039
:1026F00080734FF08042CB60D2F85C354FF0A04140
:1027000043F4803340F20135C2F85C35C1F84857D4
:10271000046038BDA24B1B681907C8D1A14B1B68C8
:1027200003F0F003302B02D19F4BA04A1A609D4B5F
:102730001B6803F0F002302A4DD003F0E003402B79
:1027400049D0984B1B6803F0F003302B00F0CB808E
:10275000944B1B6803F0F002302A28D003F0E0030A
:10276000402B24D08F4B1B6803F0F003302B00F07C
:10277000AC808C4B1B6803F0F003302B00F08E8094
:10278000884B1B6803F0F003502B35D0854B1B683A
:1027900003F0F002302A03D003F0E003402B86D18F
:1027A000834B844A1B6803F04F0313607FE7774B2A
:1027B0001B784FF080420021062BC2F80C11C2F8A2
:1027C0001011C2F838157FF472AF754B1B681D07E6
:1027D0007FF46DAFC6E7784B6C4A1B681278774977
:1027E000C3F34233062A0B607FF461AF6C4B1B6866
:1027F0001A077FF45CAFA4E74FF08052704BD2F819
:102800000414C3F82015D2F80814C3F82415D2F81C
:102810000C14C3F82815D2F81014C3F82C15D2F8EC
:102820001414C3F83015D2F81814C3F83415D2F8BC
:102830001C14C3F84015D2F82014C3F84415D2F87C
:102840002414C3F84815D2F82814C3F84C15D2F84C
:102850002C14C3F85015D2F83014C3F85415D2F81C
:102860003414C3F86015D2F83814C3F86415D2F8DC
:102870003C14C3F86815D2F84014C3F86C15D2F8AC
:102880004424C3F87025414B1B78062B7FF40FAF0F
:10289000434B1B6819077FF40AAF77E73B4B494C62
:1028A0001A78494949484A4B0525256001250D609C
:1028B00000243F21062A046019607FF4F8AE384BEB
:1028C0001B6818077FF4F3AE5AE7304B414A1B7878
:1028D0000321062B11607FF4EAAE314B1B681C0705
:1028E0007FF4E5AE45E72B4A2849D368097823F001
:1028F00080730629D360C6D1294B1B681B077FF460
:10290000D6AE25E7344A0123C2F80435D2F80034A4
:10291000002BFBD04FF0102315212F4AC3F80012D3
:10292000D2F80034002BFBD04FF0102315212A4A97
:10293000C3F80412D2F80034002BFBD00023264940
:10294000C2F80435D1F80034002BFBD0FFF798FE15
:10295000214B0122C3F80425D3F80024002AFBD020
:102960004FF010211C4BD1F80C2222F00102C1F8CB
:102970000C22D3F80024002AFBD00021164AC3F809
:102980000415D2F80034002BFBD0DFE7E00F00F095
:1029900000ED00E0F0ED00E0882100200090D00381
:1029A000E40F00F0E80F00F074C007400DF0ADBA7E
:1029B00058020010E40E0040440200103C050040A4
:1029C00000C0004010560040885600401856004095
:1029D00014560040A005004000E0014010B5074C2F
:1029E000236813B1BDE81040184705494520FEF79C
:1029F000FBFF2368BDE81040184700BF08220020F5
:102A00005421070010B5074C236813B1BDE81040EE
:102A1000184705494820FEF7E7FF2368BDE8104046
:102A2000184700BF102200205421070010B5074CA2
:102A3000236813B1BDE81040184705494B20FEF745
:102A4000D3FF2368BDE81040184700BF18220020BC
:102A50005421070010B5074C236813B1BDE810409E
:102A6000184705494E20FEF7BFFF2368BDE8104018
:102A7000184700BF202200205421070010B5074C42
:102A8000236813B1BDE81040184705495120FEF7EF
:102A9000ABFF2368BDE81040184700BF2822002084
:102AA0005421070030B583B090B31E4B98420D46B9
:102AB00010D0B0F1402F27D003F5003398422ED02C
:102AC000A3F58033984221D0A3F58833984218D1DA
:102AD000154C00E0154C02A8002300F8013D00F061
:102AE00033F8237933B19DF8070000F063F81048FC
:102AF00003B030BD0123256023719DF8070000F06D
:102B000059F80C4803B030BD0B4CE4E70B4CE2E73E
:102B10000B497720FEF768FF064803B030BD094C2B
:102B2000D9E700BF00300040282200200822002002
:102B30000B00AD0B0000AD0B102200202022002066
:102B4000542107001822002070B50446EFF30583D6
:102B5000C3F30803EBB1EFF3108072B6114B9A6820
:102B6000A2B91149114E01259D60D1F88050354020
:102B70001D60C1F88060D1F884505D604FF0FF3374
:102B8000C1F88430227000B962B670BD0123237091
:102B9000F9E7EFF31483DB07DDD505494320FEF7A2
:102BA00023FFD8E75822002000E100E0FC06FFBD2B
:102BB0007821070010B50446EFF30583C3F308033B
:102BC0007BB10C4B9A685AB154B9EFF3108272B6CC
:102BD000094918680860586848609C6002B962B684
:102BE00010BDEFF31483DB07EBD504495120FEF74A
:102BF000FBFEE6E75822002000E100E07821070014
:102C00000A44914200F1FF3300D1704710B511F82A
:102C1000014B03F8014F9142F9D110BDF8B500BF47
:102C2000F8BC08BC9E467047F8B500BFF8BC08BCAD
:102C30009E4670472821002000000000B71DC104F7
:102C40006E3B8209D926430DDC7604136B6BC517E6
:102C5000B24D861A0550471EB8ED08260FF0C9225E
:102C6000D6D68A2F61CB4B2B649B0C35D386CD31C6
:102C70000AA08E3CBDBD4F3870DB114CC7C6D04892
:102C80001EE09345A9FD5241ACAD155F1BB0D45B6E
:102C9000C2969756758B5652C836196A7F2BD86ED6
:102CA000A60D9B6311105A6714401D79A35DDC7D4E
:102CB0007A7B9F70CD665E74E0B6239857ABE29C3A
:102CC0008E8DA191399060953CC0278B8BDDE68F6E
:102CD00052FBA582E5E66486585B2BBEEF46EABA56
:102CE0003660A9B7817D68B3842D2FAD3330EEA94E
:102CF000EA16ADA45D0B6CA0906D32D42770F3D0B2
:102D0000FE56B0DD494B71D94C1B36C7FB06F7C3E5
:102D10002220B4CE953D75CA28803AF29F9DFBF6DD
:102D200046BBB8FBF1A679FFF4F63EE143EBFFE5C5
:102D30009ACDBCE82DD07DEC77708634C06D4730DD
:102D4000194B043DAE56C539AB0682271C1B4323E5
:102D5000C53D002E7220C12ACF9D8E1278804F165D
:102D6000A1A60C1B16BBCD1F13EB8A01A4F64B05C5
:102D70007DD00808CACDC90C07AB9778B0B6567C91
:102D800069901571DE8DD475DBDD936B6CC0526F6D
:102D9000B5E6116202FBD066BF469F5E085B5E5AD5
:102DA000D17D1D576660DC5363309B4DD42D5A494D
:102DB0000D0B1944BA16D84097C6A5AC20DB64A801
:102DC000F9FD27A54EE0E6A14BB0A1BFFCAD60BB6D
:102DD000258B23B69296E2B22F2BAD8A98366C8E55
:102DE00041102F83F60DEE87F35DA9994440689D4D
:102DF0009D662B902A7BEA94E71DB4E0500075E4B1
:102E0000892636E93E3BF7ED3B6BB0F38C7671F7E4
:102E1000555032FAE24DF3FE5FF0BCC6E8ED7DC2DC
:102E200031CB3ECF86D6FFCB8386B8D5349B79D1C4
:102E3000EDBD3ADC5AA0FBD8EEE00C6959FDCD6D32
:102E400080DB8E6037C64F643296087A858BC97EE8
:102E50005CAD8A73EBB04B77560D044FE110C54B58
:102E6000383686468F2B47428A7B005C3D66C158C8
:102E7000E4408255535D43519E3B1D252926DC21AC
:102E8000F0009F2C471D5E28424D1936F550D83270
:102E90002C769B3F9B6B5A3B26D6150391CBD407D0
:102EA00048ED970AFFF0560EFAA011104DBDD01450
:102EB000949B93192386521D0E562FF1B94BEEF5B4
:102EC000606DADF8D7706CFCD2202BE2653DEAE670
:102ED000BC1BA9EB0B0668EFB6BB27D701A6E6D350
:102EE000D880A5DE6F9D64DA6ACD23C4DDD0E2C050
:102EF00004F6A1CDB3EB60C97E8D3EBDC990FFB98C
:102F000010B6BCB4A7AB7DB0A2FB3AAE15E6FBAAE7
:102F1000CCC0B8A77BDD79A3C660369B717DF79FD7
:102F2000A85BB4921F4675961A163288AD0BF38CC7
:102F3000742DB081C330718599908A5D2E8D4B5967
:102F4000F7AB085440B6C95045E68E4EF2FB4F4AE7
:102F50002BDD0C479CC0CD43217D827B9660437F57
:102F60004F460072F85BC176FD0B86684A16476CC7
:102F700093300461242DC565E94B9B115E565A15AB
:102F800087701918306DD81C353D9F0282205E066F
:102F90005B061D0BEC1BDC0F51A69337E6BB5233CF
:102FA0003F9D113E8880D03A8DD097243ACD56204F
:102FB000E3EB152D54F6D4297926A9C5CE3B68C17B
:102FC000171D2BCCA000EAC8A550ADD6124D6CD26F
:102FD000CB6B2FDF7C76EEDBC1CBA1E376D660E74F
:102FE000AFF023EA18EDE2EE1DBDA5F0AAA064F44F
:102FF000738627F9C49BE6FD09FDB889BEE0798D8B
:1030000067C63A80D0DBFB84D58BBC9A62967D9EE6
:10301000BBB03E930CADFF97B110B0AF060D71ABD6
:10302000DF2B32A66836F3A26D66B4BCDA7B75B8C6
:10303000035D36B5B440F7B1FFFFFFFFFFFFFFFFB1
:103040000338FDD87047FFFF0000000000100000AB
:103050000010000000100000002000000010000020
:1030600000300000001000000040000000100000D0
:103070000050000000100000006000000010000080
:103080000000040000000C0000001000000004001C
:103090000000140000000C0000000000000001000F
:1030A0000000020000000100000003000000010019
:1030B0000000040000000100000005000000010005
:1030C00000000F000000010000000E0000000100E1
:1030D00000000600000008000000100000000400CE
:1030E0000000140000000C0000300240000000004E
:1030F0006669726D776172652F7372632F6472698E
:10310000766572732F7370695F6D61737465722F6A
:103110006E7266785F7370696D2E63006669726D9A
:10312000776172652F7372632F647269766572734B
:103130002F68616C2F6E72665F6770696F2E680012
:103140006669726D776172652F7372632F6472693D
:10315000766572732F6E7266785F676C75652E6820
:1031600000FFFFFF6669726D776172652F7372638E
:103170002F647269766572732F7072732F6E726628
:10318000785F7072732E63006669726D7761726525
:103190002F7372632F6C69627261726965732F7528
:1031A00074696C2F6170705F7574696C5F706C61AD
:1031B00074666F726D2E630000000000E4E2FF7F12
:1031C00001000000000000000000000000000000FE
:1031D00000000000000000000000000000000000EF
:1031E00000000000000000000000000000000000DF
:1031F00000000000000000000000000000000000CF
:1032000000000000000000000000000000000000BE
:1032100000000000000000000000000000000000AE
:10322000000000000090D0036D0407004504070073
:103230000B0300626F6F7435320300000000000062
:103240000000000000000000ADDAADBA803C55710E
:00000001FF
